:020000020000FC
:040000000C948700D5
:040048000C943201E1
:10006800484F4C414D554E444F007E9090907E0035
:10007800FE9292F20E00FE8282828200FE828282CC
:100088007C00FE9292928200FE90909080007C828A
:1000980092929C00FE101010FE000000FE0000006E
:1000A8008E82FE808000FE1028448200FE0202023A
:1000B8000200FE603060FE00FE061806FE007C822C
:1000C80082827C00FE90909060007C828A867E000E
:1000D800FE9098946200649292924C008080FE8018
:1000E8008000FC020202FC00C0380E38C000FE0688
:1000F8003006FE00C66C106CC60080403E40800092
:10010800869A92B2C20018E01EBF1FEF1DBF389A30
:100118000000409A1FE017B912951AB90E9405010C
:100128000E94E70078940E94C9000C9499004F93AC
:1001380045914F934F7048B94F91407F4BB94F91BC
:1001480008950F932F93F0E0E2E726E00154209FF3
:10015800E00DF11D0E949B000E94E6000E949B009A
:100168000E94E6000E949B000E94E6000E949B00FD
:100178000E94E6000E949B000E94E6000E949B00ED
:100188000E94E6002F910F9108953F9336E3B1E066
:10019800A0E0303041F00D910E94A5000E94E500DA
:1001A80036500C94CD003F9108950F93F0E0E8E6A7
:1001B800B1E0A0E00591003011F00D93FBCF0F9155
:1001C800089508950895B1E0A0E00E94FD000E94FE
:1001D800F0000E940001089508E90093C10006E0BC
:1001E8000093C20007E60093C40000E00093C50036
:1001F8000895209A259A089505B100FD0895289A32
:1002080008954F932098259A269A40916F0040624E
:1002180040936F00409180004C7040938000409163
:1002280081004164409381000E941C014F91089510
:1002380056B355FFFDCF709186008091870056BB5D
:100248002D9A56B355FFFDCF2E9A56BB6091860066
:10025800671B70918700780B2D9808950F931F9353
:100268002F933F934F931091C6001D934F913F9149
:0C0278002F911F910F9118950C944001DC
:00000001FF
