:020000020000FC
:040000000C948700D5
:10006800484F4C414D554E444F007E9090907E0035
:10007800FE9292F20E00FE8282828200FE828282CC
:100088007C00FE9292928200FE90909080007C828A
:1000980092929C00FE101010FE000000FE0000006E
:1000A8008E82FE808000FE1028448200FE0202023A
:1000B8000200FE603060FE00FE061806FE007C822C
:1000C80082827C00FE90909060007C828A867E000E
:1000D800FE9098946200649292924C008080FE8018
:1000E8008000FC020202FC00C0380E38C000FE0688
:1000F8003006FE00C66C106CC60080403E40800092
:10010800869A92B2C20018E01EBF1FEF1DBF389A30
:100118000000409A1FE017B912951AB90E94D20040
:100128000E94C2000C94E0004F9345914F934F708A
:1001380048B94F91407F4BB94F9108950F932F9332
:10014800F0E0E2E726E00154209FE00DF11D0E9457
:1001580098000E94DF000E9498000E94DF000E9421
:1001680098000E94DF000E9498000E94DF000E9411
:1001780098000E94DF002F910F9108953F9336E376
:10018800B1E0A0E0303041F00D910E94A2000E9441
:10019800DE0036500C94C6003F9108950F93F0E0AE
:1001A800E8E6B1E0A0E00591003011F00D93FBCF37
:0C01B8000F910895089508950C94E00044
:00000001FF
