:020000020000FC
:100C00007E9090907E00FE9292F20E00FE82828292
:100C10008200FE8282827C00FE9292928200FE908E
:100C2000909080007C8292929C00FE101010FE003A
:100C30000000FE0000008E82FE808000FE1028442E
:100C40008200FE0202020200FE603060FE00FE062C
:100C50001806FE007C8282827C00FE9090906000EC
:100C60007C828A867E00FE909894620064929292C2
:100C70004C008080FE808000FC020202FC00C03834
:100C80000E38C000FE063006FE00C66C106CC600B2
:100C900080403E408000869A92B2C200484F4C414C
:020CA0000A0048
:040000000C94340028
:040028000C944500EF
:040048000C943A01D9
:1000680018E01EBF1FEF1DBF1FE017B912951AB980
:100078000E9491000E94D4000E94F40078940C948D
:100088004300789440916F00487D40936F000E9430
:10009800CD000E94830040916F00406240936F0042
:1000A80018954F9345914F934F7048B94F91407FA2
:1000B8004BB94F9108950F932F93FCE0E0E026E0B1
:1000C8000154209FE00DF11D0E9455000E94C500BB
:1000D8000E9455000E94C5000E9455000E94C5005C
:1000E8000E9455000E94C5000E9455000E94C5004C
:1000F8000E9455000E94C5002F910F910895B1E00C
:10010800A0E00D91003041F00F3F31F00A3021F0AE
:100118000E945F000C94850008950F93FCE0ECE9C1
:10012800B1E0A0E00591003011F00D93FBCF0F91E5
:1001380008954F9345B340FFFCCF4091250040738D
:100148004093810041E045BB4F9108956F938F9391
:100158006FE383E58A95F1F76A95E1F78F916F91DF
:1001680008952F933F934F9329E236E940E84A9543
:10017800F1F73A95E1F72A95D1F74F913F912F91F1
:1001880008956DE074E77A95F1F76A95E1F7000054
:1001980008954EE64A950E94C5004030D9F7089563
:1001A800D1E0C0E00E94EA000E94DD000E94EC005D
:1001B800089508E90093C10006E00093C20007E62D
:1001C8000093C40000E00093C5000895229A0895A2
:1001D80005B102FD08952A9A0895D1E0C0E0089576
:1001E8004F938F93209840916F00406240936F0027
:1001F800409180004C70409380004091810043649E
:10020800409381000E9412018FEF871B86BD40E05A
:1002180044BD43E045BD8F914F9108955F936F931F
:100228008F9356B355FFFDCF70918600809187005C
:1002380056BB56B355FFFDCF2E9A56BB609186002C
:10024800671B70918700780B0E942E015F916F9158
:100258008F9108955F9A703009F3409A40EF4717DD
:10026800E8F60E94B5005F98409808950F931F9391
:100278002F933F934F931091C6001A3039F019937A
:100288004F913F912F911F910F91189519930E94AB
:10029800F1004F913F912F911F910F9118950C9458
:0202A800530100
:00000001FF
