:020000020000FC
:040000000C94EA0072
:040048000C94D8013B
:10006800484F4C41204D554E444F000000000000C1
:100078000000FA0000000000C0C0000000000000FE
:1000880000002452FE524C00024C106480006C9216
:10009800926C12000000C0000000007E8200000088
:1000A8000000827E00001418701814000010381028
:1000B8000000000006000000001010100000000002
:1000C800020000000202106080007C8692C27C0060
:1000D8002040FE00000062868A926200448292926A
:1000E8006C00F01010FE1000E4A2A2A29C003C528A
:1000F80092120C0080909CB0C0006C9292926C009E
:10010800609090907E000000120000000000160031
:100118000000102844820000001212120000008221
:100128004428100060809A9060003C425C543C0077
:100138007E9090907E00FE9292F20E00FE82828265
:100148008200FE8282827C00FE9292928200FE9061
:10015800909080007C8292929C00FE101010FE000D
:100168000000FE0000008E82FE808000FE10284401
:100178008200FE0202020200FE603060FE00FE06FF
:100188001806FE007C8282827C00FE9090906000BF
:100198007C828A867E00FE90989462006492929295
:1001A8004C008080FE808000FC020202FC00C03807
:1001B8000E38C000FE063006FE00C66C106CC60085
:1001C80080403E408000869A92B2C20018E01EBF6E
:1001D8001FEF1DBF1FE017B912951AB90E949001B1
:1001E8000E946F0178940E9437010E942D010E949D
:1001F80068010C94F9004F9345914F934F7048B99B
:100208004F91407F4BB94F9108950F932F93F0E092
:10021800E2E726E00052209FE00DF11D0E94FF005A
:100228000E9443010E94FF000E9443010E94FF00B8
:100238000E9443010E94FF000E9443010E94FF00A8
:100248000E9443010E94FF000E9443012F910F91D9
:100258000895B1E0A0E00D91003021F00E9409015D
:100268000C942F0108950F93F0E0E8E6B1E0A0E0C8
:100278000591003011F00D93FBCF0F9108954F9326
:1002880045B340FFFCCF4091250040734093810067
:1002980041E045BB4F9108952F933F934F9329E237
:1002A80036E940E84A95F1F73A95E1F72A95D1F70A
:1002B8004F913F912F9108956DE074E77A95F1F78A
:1002C8006A95E1F7000008954DE24A950E946001A1
:1002D8004030D9F70895B1E0A0E00E9485010E945E
:1002E80078010E948801089508E90093C10006E09A
:1002F8000093C20007E60093C40000E00093C50025
:100308000895209A259A089505B100FD0895289A20
:100318000895B1E0A0E008954F938F9320984091FD
:100328006F00406240936F00409180004C70409392
:100338008000409181004164409381000E94AF0198
:100348008FEF871B86BD41E040E044BD41E045BDDD
:100358008F914F9108955F936F938F9356B355FF85
:10036800FDCF709186008091870056BB56B355FF2C
:10037800FDCF2E9A56BB60918600671B709187004F
:10038800780B0E94CB015F916F918F910895703027
:1003980011F35F9A703F40EF4717E8F6409A0E94C2
:1003A80050015F98409808950F931F932F933F93A0
:1003B8004F931091C6001D3039F01D934F913F9116
:1003C8002F911F910F9118950E948D014F913F9188
:0C03D8002F911F910F9118950C94F001CB
:00000001FF
