:020000020000FC
:040000000C948700D5
:040048000C946E01A5
:10006800484F4C414D554E444F007E9090907E0035
:10007800FE9292F20E00FE8282828200FE828282CC
:100088007C00FE9292928200FE90909080007C828A
:1000980092929C00FE101010FE000000FE0000006E
:1000A8008E82FE808000FE1028448200FE0202023A
:1000B8000200FE603060FE00FE061806FE007C822C
:1000C80082827C00FE90909060007C828A867E000E
:1000D800FE9098946200649292924C008080FE8018
:1000E8008000FC020202FC00C0380E38C000FE0688
:1000F8003006FE00C66C106CC60080403E40800092
:10010800869A92B2C20018E01EBF1FEF1DBF389A30
:100118000000409A1FE017B912951AB978940E9406
:10012800D5000E94C7000C9495004F9345914F93BA
:100138004F7048B94F91407F4BB94F9108950F9335
:100148002F93F0E0E2E726E00154209FE00DF11D37
:100158000E9499000E94E1000E9499000E94E1001B
:100168000E9499000E94E1000E9499000E94E1000B
:100178000E9499000E94E1000E9499000E94E100FB
:100188002F910F9108953F9336E3B1E0A0E030300E
:1001980031F00D910E94A30036500C94CB003F9192
:1001A80008950F93F0E0E8E6B1E0A0E00591003093
:1001B80011F00D93FBCF0F9108954F9345B340FF76
:1001C800FCCF4091250040734093810041E045BB3E
:1001D8004F9108956F938F936FE383E58A95F1F7B5
:1001E8006A95E1F78F916F9108952F933F934F93FD
:1001F80029E236E940E84A95F1F73A95E1F72A9578
:10020800D1F74F913F912F9108950895B1E0A0E063
:100218000E9420010E9413010E942301089508E909
:100228000093C10006E00093C20007E60093C400F3
:1002380000E00093C5000895209A259A089505B115
:1002480000FD0895289A08954F938F932098409120
:100258006F00406240936F00409180004C70409363
:100268008000409181004164409381000E944701D1
:100278008FEF871B86BD41E040E044BD41E045BDAE
:100288008F914F9108955F936F938F9356B355FF56
:10029800FDCF709186008091870056BB56B355FFFD
:1002A800FDCF2E9A56BB60918600671B7091870020
:1002B800780B0E9463015F916F918F910895703060
:1002C80011F35F9A703FF8F6409A0E94F9005F9820
:1002D800409808950F931F932F933F934F93109136
:1002E800C6001D934F913F912F911F910F91189523
:0402F8000C947C01E5
:00000001FF
