:020000020000FC
:100C00007E9090907E00FE9292F20E00FE82828292
:100C10008200FE8282827C00FE9292928200FE908E
:100C2000909080007C8292929C00FE101010FE003A
:100C30000000FE0000008E82FE808000FE1028442E
:100C40008200FE0202020200FE603060FE00FE062C
:100C50001806FE007C8282827C00FE9090906000EC
:100C60007C828A867E00FE909894620064929292C2
:100C70004C008080FE808000FC020202FC00C03834
:100C80000E38C000FE063006FE00C66C106CC600B2
:100C900080403E408000869A92B2C200484F4C414C
:020CA0000A0048
:040000000C94340028
:040028000C94210112
:040048000C943101E2
:1000680018E01EBF1FEF1DBF1FE017B912951AB980
:100078000E9483000E94BB000E94DB0078940C94CD
:1000880043004F9345914F934F7048B94F91407F2C
:100098004BB94F9108950F932F93FCE0E0E026E0D1
:1000A8000154209FE00DF11D0E9445000E94AC0004
:1000B8000E9445000E94AC000E9445000E94AC00CE
:1000C8000E9445000E94AC000E9445000E94AC00BE
:1000D8000E9445000E94AC002F910F910895B1E055
:1000E800A0E00D91003051F00F3F41F00D3031F09C
:1000F8000A3021F00E944F000C94750008950F9368
:10010800FCE0ECE9B1E0A0E00591003011F00D93BE
:10011800FBCF0F9108954F9345B340FFFCCF40911B
:10012800250040734093810041E045BB4F910895FD
:100138002F933F934F9329E236E940E84A95F1F728
:100148003A95E1F72A95D1F74F913F912F9108956C
:100158006DE074E77A95F1F76A95E1F70000089584
:100168004CED4A950E94AC004030D9F70895D1E093
:10017800C0E00E94D1000E94C4000E94D3000895EC
:1001880008E90093C10006E00093C20007E6009367
:10019800C40000E00093C5000895229A089505B1AF
:1001A80002FD08952A9A0895D1E0C0E008954F937A
:1001B8008F93209840916F00406240936F00409168
:1001C80080004C70409380004091810043644093CC
:1001D80081000E94F9008FEF871B86BD40E044BD77
:1001E80043E045BD8F914F9108955F936F938F932F
:1001F80056B355FFFDCF709186008091870056BB9E
:1002080056B355FFFDCF2E9A56BB60918600671BEB
:1002180070918700780B0E9415015F916F918F9103
:100228000895409A40EF471700F75F9A7030E9F257
:100238000E949C005F984098089578940E94B400AA
:1002480040916F00487D40936F000E947300409179
:100258006F00406240936F0018950F931F932F9380
:100268003F934F931091C6001D3049F01A3039F072
:1002780019934F913F912F911F910F9118951993B1
:100288000E94D8004F913F912F911F910F9118957F
:00000001FF
