:020000020000FC
:0200000033C00B
:0200480053C0A3
:100068000FEF0DBF08E00EBFB1E0A0E00E946400F2
:100078000E9442000E9466007894FFCF08E900932E
:10008800C10006E00093C20007E60093C40000E048
:100098000093C500089529E236E94EE74A95F1F73D
:1000A8003A95E1F72A95D1F700C0089522E53BE299
:1000B80040E04A95F1F73A95E1F72A95D1F7089586
:1000C800229A089505B102FD08952A9A08950F937A
:1000D8001F930FE018B1012B08B900EF1BB1012BDA
:1000E8000BB90F911F9108950F931F932F933F936F
:1000F8004F931091C6001A3039F01D934F913F91DC
:100108002F911F910F9118950E946B000E949200E9
:100118004F913F912F911F910F911895B1E0A0E059
:02012800089538
:00000001FF
