:020000020000FC
:100A000041540D0A41542B505357443D3935363427
:100A10000D0A41542B524F4C453D300D0A004154B4
:100A20002B554152543D3936303030300D0A415447
:100A30002B4E414D453D446973706C617920504F98
:040A4000560D0AFF46
:0200000033C00B
:02004C003DC0B5
:100068000FEF0DBF08E00EBFFAE0E0E00E9462006B
:100078000E9440007894FFCF08E20093C10006E098
:100088000093C20009E10093C40000E00093C5009A
:10009800089529E236E94EE74A95F1F73A95E1F7EE
:1000A8002A95D1F700C0089522E53BE240E04A9541
:1000B800F1F73A95E1F72A95D1F70895209A08952E
:1000C8000F931F932F933F934F930E9458000E94C2
:1000D80058000E9484000FEF5590501649F408E12B
:1000E8000093C1004F913F912F911F910F91189547
:1000F8005092C6004F913F912F911F910F911895E3
:0A01080005B100FD0895289A08953E
:00000001FF
