:020000020000FC
:0200000033C00B
:0200480047C0AF
:100068000FEF0DBF08E00EBFB1E0A0E00E946400F2
:100078000E9442000E9467007894FFCF08E900932D
:10008800C10006E00093C20007E60093C40000E048
:100098000093C500089529E236E94EE74A95F1F73D
:1000A8003A95E1F72A95D1F700C0089522E53BE299
:1000B80040E04A95F1F73A95E1F72A95D1F7089586
:1000C800209A259A089505B100FD0895289A089563
:1000D8000F931F932F933F934F931091C6001D9337
:0C00E8004F913F912F911F910F9118959F
:00000001FF
