:020000020000FC
:100A000041540D0A41542B505357443D3935363427
:100A10000D0A41542B524F4C453D300D0A004154B4
:100A20002B554152543D3936303030300D0A415447
:100A30002B4E414D453D446973706C617920504F98
:040A4000560D0AFF46
:0200000033C00B
:02004C0044C0AE
:100068000FEF0DBF08E00EBFFAE0E0E00E94680065
:100078000E94460078942D980E9453002D9A0E9461
:100088005300F9CF08E20093C10006E00093C200D4
:1000980009E10093C40000E00093C500089529E237
:1000A80036E94EE74A95F1F73A95E1F72A95D1F7FF
:1000B80000C0089522E53BE240E04A95F1F73A9501
:1000C800E1F72A95D1F70895529A259A08950F9342
:1000D8001F932F933F934F930E945E000E945E00F0
:1000E8000E948B000FEF5590501649F408E10093D9
:1000F800C1004F913F912F911F910F9118955092E8
:10010800C6004F913F912F911F910F9118950BB1F8
:0801180000FD08955A9A0895B4
:00000001FF
