:020000020000FC
:100A000041540D0A41542B4E414D453D7072756560
:100A100062610D0AFF0041542B524F4C453D310D90
:100A20000A0041542B505357443D313233340D0AA0
:100A300041542B554152543D3936303030300D0A37
:020A4000FF00B5
:0200000033C00B
:02004C0043C0AF
:100068000FEF0DBF08E00EBF0E9466000E9444001B
:1000780078942D9A0E9451002D980E945100F9CF32
:1000880008E20093C10006E00093C20007E600936F
:10009800C40000E00093C500089529E236E94EE760
:1000A8004A95F1F73A95E1F72A95D1F700C00895F6
:1000B80022E53BE240E04A95F1F73A95E1F72A95C7
:1000C800D1F70895259A0FEF07B908950F931F9355
:1000D8002F933F934F93FAE0E0E005910F3FC1F46F
:1000E8004F913F912F911F910F912D9A0E945C0083
:1000F8000E945C000E945C000E945C002D980E9497
:100108005C000E945C000E945C000E945C001895E4
:060118000093C600E2CFD7
:00000001FF
