:020000020000FC
:100000000C9402002098259A269A40916F00406235
:1000100040936F00409180004C704093800040916D
:1000200081004164409381000E941A000E943D00BB
:100030000C94140056B355FFFDCF7091860080914B
:10004000870056BB2D9A56B355FFFDCF2E9A56BB4F
:1000500060918600671B70918700780B2D98222491
:100060008FEF90E1660F771F221C10F0281610F01A
:10007000281A63959A95B1F708958FEF861B86BD70
:1000800041E040E044BD41E045BD45B340FFFDCF08
:100090004091250040734093810041E045BB0895A5
:00000001FF
